:020000040800F2
:10000000E8060020C500000865200008DF1F000882
:1000100000000000000000000000000000000000E0
:10002000000000000000000000000000692000083F
:100030000000000000000000672000086B2000089E
:10004000D700000800000000D7000008D700000813
:10005000D7000008D7000008D7000008D700000824
:1000600000000000D7000008D7000008D7000008F3
:10007000D7000008D7000008D700000800000000E3
:10008000D70000080000000000000000D7000008B2
:1000900000000000D7000008D7000008D7000008C3
:1000A00000000000D700000800000000AD24000898
:1000B0000348854600F040FF0048004795260008A9
:1000C000E80600200448804704480047FEE7FEE7B2
:1000D000FEE7FEE7FEE7FEE7CF200008B1000008DC
:1000E00030B50B46014600202022012409E00D46D0
:1000F000D5409D4205D31D469540491B2546954058
:1001000040191546521E002DF1DC30BDF0B51FB46C
:100110000646002082B005464024019100901BE075
:10012000019922460F46304600F020F8049A059BBC
:10013000801A994110D310461946224600F01DFD41
:10014000361A8F410197224601200021009F00F0BE
:1001500014FD38184D4100902046641E0028DFDC55
:10016000019B00982946324607B0F0BD10B5202A01
:1001700004DB0846203AD040002110BD0B46D34096
:10018000D0402024A21A91400843194610BDD2B293
:1001900001E00270401C491EFBD270470022F6E7C6
:1001A00010B513460A4604461946FFF7F0FF2046ED
:1001B00010BD30B505462A460B4610781C78521CF7
:1001C0005B1C002801D0A042F7D0002C03D00028EF
:1001D00002D06D1CEFE7284630BD00000FB400B51B
:1001E0008DB009900B9010A900200091C0430A9097
:1001F00000200C9006480690064807906A4609A819
:100200000F9900F0F3FC0DB008BC04B018470000D3
:100210000D0C00082D0C0008FFB50027FF4383B02C
:1002200000205C6801909E681D46A9697F1C0498A7
:1002300088470090296A88470028F6D10098401C1A
:100240000CD0032040028443002E19DD600614D533
:1002500000982B2809D02D280FD103E00020C0439F
:1002600007B0F0BD012080020443A9697F1C0498F7
:100270008847761E0090002E02DD0098302803D0BB
:100280000598002825D035E0012040020443A969E3
:10029000761E7F1C049888470090002E03DD782886
:1002A00005D0582803D00598002810D022E00598E2
:1002B000002801D010281DD1012040028443A969E3
:1002C000761E7F1C049888470090102002E00820CA
:1002D00000E00A2005900DE0012149020C43059A37
:1002E0000199761E514308180190A9697F1C049852
:1002F00088470090002E05DD0599009800F060FC0D
:100300000028E9DAE96904988847A00502D40120A9
:10031000C043A5E7E00722D1600611D5600501982A
:1003200000D5404229680A1D2A600968220501D5C6
:10033000087014E0220701D5088010E008600EE084
:100340002868011D29600068210502D50199017006
:1003500005E02107019901D5018000E001603846E0
:100360007EE7FFB5002083B000905068019091694E
:100370001446002697680498884705460C99069805
:10038000084305D009E0A169761C04988847054612
:10039000216A284688470028F5D1681C03D00198B7
:1003A000C00704D017E00020C04307B0F0BD2068AC
:1003B000011D2160006800900DE00198C00704D184
:1003C000009805700098401C0090A169761C7F1E63
:1003D000049888470546002F1CDD681C1AD0069833
:1003E00000280FD0E817C00E401941118A00069965
:1003F0004009511840012A1A096801209040014221
:10040000DBD107E00C980028D7D1216A284688471D
:100410000028D2D0E169049888470C98002807D1B9
:10042000002E05DD0198C00702D10098002101705F
:10043000A068B84204DD0C98002804D0002F02D038
:100440000120C043B1E73046AFE70000FFB50878B0
:1004500089B01546FF2805D0491C2D2804D000225C
:10046000002407E000240BE00122F9E70A235C43A3
:100470000419491C0878FF28F8D1002A00D06442EA
:10048000002004902A7801462D2A01D02B2A0FD172
:100490006D1C2D2A02D00022049209E00122FBE704
:1004A00000260A2233466D1C00F02AFB38187141E1
:1004B0002F78FF2FF4D10C9AA218069202460A4315
:1004C00004D0FF23069A9133DA4205DA0021099815
:1004D0000A4606C00DB0F0BD0024B74AB54D264609
:1004E000079200F0FFFC029006980391002801DAC1
:1004F000474200E0074639050020AF4A001C514141
:100500000191009012E0F80707D022462B463046B2
:10051000079900F03DFC0646079122462B461046FF
:10052000194600F035FC04460D467F10002FEAD135
:100530000698019B0028009A0399029806DA00F0B9
:100540002FFA3246079B00F02BFA05E000F020FC62
:100550003246079B00F01CFC049A002A02D00122BC
:10056000D2075140099A03C2B4E7FFB591B0002009
:1005700009900025ED432E209E685C681F4601907F
:10058000B9696D1C129888470090396A884700281D
:10059000F6D10098401C0AD00D20C0018443002EE3
:1005A00012DD00982B2809D02D280DD103E0002062
:1005B000C04315B0F0BD012080020443B9696D1C31
:1005C00012988847761E009003A9600501D52D205A
:1005D00000E02B206A461073491C0CA80F91029072
:1005E0000AE0B9696D1C129888470090012040020A
:1005F00004431398761E0560002E02DD0098302813
:10060000EFD001990098884246D18020044308E049
:100610000998401E09900120400204431399681C68
:100620000860B9696D1C761E1298884700903028C2
:10063000EED031E00199884205D1200603D4802014
:100640000443761E1EE0009801F0A8FF002826D083
:1006500001204002044307A90F980331761E884207
:100660000BD200980F99303808700F98401C0F90EB
:10067000200607D50998401E03E0200602D40998F9
:10068000401C0990A00502D51399681C0860B9693F
:100690006D1C129888470090002ECBDC59E0002E8C
:1006A00057DD0098652801D0452852D1A00550D5C6
:1006B000032000028443B9696D1C761E1298884796
:1006C0000090002E0CDD2B2804D02D2808D1FF200F
:1006D00001300443B9696D1C12988847761E00905A
:1006E000E00501D52D2100E02B2102980170029830
:1006F000401C0290019025E00120400204430EA915
:1007000002980131761E88420ED200980299303844
:100710000006000E087003D10299019881420AD99F
:100720000298401C029006E0E00501D5234801E054
:10073000224840420990B9696D1C12988847009080
:1007400013980560002E04DD009801F027FF0028B3
:10075000D2D1F969129888470F99FF200870029941
:1007600003AA087000200A900B900CA90AA8099B04
:10077000FFF76CFEA00502D40120C04319E7242036
:10078000044209D0E00713D138680B9A0A99031D77
:100790003B60006806C00BE00B990A9800F0B0FBC4
:1007A0000146E00704D13868021D3A600068016024
:1007B0002846FEE6000014400000F03FF1D8FFFF9D
:1007C00070B502464A40D50F40004A00ED07400888
:1007D0005208002814D0002A12D0C40DD30D4102B3
:1007E0000120C0055202490A520AE41A09181218D7
:1007F0007D34914201D3641C00E04900002C01DAF1
:10080000002070BD0023914201D3891A03434008A0
:1008100049000028F7D100290AD0914202D10121D4
:10082000C90705E0914201D2012101E00121C9433C
:10083000E005C018401900F00BFA70BDF0B507468E
:100840000846584087B0C00F049048000E46590033
:1008500040084908BC1A884105D2384631461E4630
:1008600017460B4602465800400810434CD0300D46
:10087000039040055900400D490D0590401A029023
:10088000402872DA18030121000B09050843019082
:1008900004980092002805D0019952420020884116
:1008A00000920190029840210A1A0199009800F0E4
:1008B00064F905460C466B4607CB00F06EF9C0198B
:1008C0007141039A0E0D0023D71756401A467A40FD
:1008D000164344D0049A002A2DD0029A012A039A82
:1008E00015DC1205C01A914101263605001C714124
:1008F000D20F059ED2070093019202962A46234604
:1009000000F0F4F907B0F0BD38463146FAE71605B5
:10091000224A0F46B218C01AB74101210905001C2E
:100920004F4100187F41114618187941E20F1043DA
:100930006D19644113E0E2076D0815436408C207AE
:100940001443039A01261205C01A91413605001C72
:100950007141CE07400830434908C01851412A462A
:10096000234600F0B6F9CDE7FFE7049801224000E6
:10097000C117121A00238B4104983146C417381A44
:10098000A141EEE730B40124E407634030BC55E7F1
:1009900030B40124E407614030BC4FE70000E0FFC1
:1009A000F0B50C465C4085B0E40FE40703944C00BE
:1009B00000266408590094464908024602962243DC
:1009C00021D062460A431ED06200570D4A000E0332
:1009D0002303550D012402462C492405781B1B0BCB
:1009E000360B401823432643614600901C46501A9C
:1009F000B44103D30098401C009002E09218009884
:100A00005B41002803DA0020014605B0F0BD00205C
:100A1000012109050746864611E064461D46141B60
:100A2000B54106D36546521BB341744607430C4398
:100A3000A646CD0740084908284392185B41054661
:100A40000D43EAD11046184313D060461946504072
:100A50007140084306D06046101AB34106D2012205
:100A6000002306E000220123DB0702E00122D2433B
:100A70005310009874460105381C6141029C039D87
:100A80000019694100F025F9BFE70000FD030000EF
:100A9000C217C10F504010B54018CA079623002155
:100AA00000F0DEF810BDC20F410040020123400AF1
:100AB000DB05D207090EC0187F2901DA0020704734
:100AC000962903DC9623591AC84001E096398840DC
:100AD000002AF4D040427047C20FD20740004008BD
:100AE0000BD0C10D0723DB01C91840020905400ADC
:100AF0001143C20840071143704700200146704768
:100B0000F0B51FB486B000200090019002900698C6
:100B1000069980B204900798090C0204001411434E
:100B200007900027089D099806913E463C46039091
:100B30000398A9B20204000C039004982D0C1543ED
:100B400048430021224600F018F8C71971411034BB
:100B50000E46402CECDB3846029A00F00EF8009A64
:100B6000019B801800905941029801911030029029
:100B70004028CCDB00980BB0F0BD10B5202A04DB78
:100B80000146203A9140002010BD914020239C1A3C
:100B90000346E3401943904010BD10B5202A06DB00
:100BA000CB170846203A1041C1170B4306E00B460D
:100BB0001341D0402024A21A91400843194610BD89
:100BC0003A2800D23038202302469A43412A01D3E2
:100BD00010463738884201D30020C04370470000D8
:100BE00002681378511801601846704710B5D1603B
:100BF000044951610449116200211161114600F05C
:100C0000B5F910BDE10B00085D0F00084268002A2D
:100C100008D001680B78491C002B03D0521E06C077
:100C2000184670470121C160881E70474268002A3B
:100C30000BD0C3680168002B07D183688B4204D0B6
:100C4000491E521C06C0002070470020C043704758
:100C5000002904DA401C490001D1400840007047D7
:100C600070B40024050C05D11024000402D1002921
:100C700021D01124050E01D100020834050F01D145
:100C80000001241D850F01D18000A41C002801DB78
:100C90004000641C002908D020252E1B0D46F5407D
:100CA000A14000D001212943084301061B1B000A73
:100CB000DB1D02D5002070BC7047DB0518188018BA
:100CC0000029F8DA401C4900F5D170BC400840000A
:100CD000704710B5002B08DA0024401C61419218BF
:100CE0005B411A4301D14008400010BDF0B51FB46C
:100CF00082B005460C0003D0084601F0DFFB02E09D
:100D000001F0DCFB20300246009021462846FFF728
:100D100034FF049B059A04460F46184311430843C9
:100D200014D0184610431BD0009840210A1A1846C8
:100D30000599FFF71BFA05460E46009A0599049897
:100D4000FFF71BFF084305D0012004E02046394689
:100D500007B0F0BD0020C11705430E432C433743B5
:100D600000990E986305401A7905E40A00220C43A5
:100D7000FD0A0A3002D500200146E9E701051019F5
:100D800069410C9C0D9D00196941FFF7A2FFDFE747
:100D9000F0B51FB488B00B99099800244840099910
:100DA000C00F490049080991C0070B9900904900FC
:100DB00049080B9109990898A64608431CD00B993D
:100DC0000A98084318D0099801244000420D4800B1
:100DD000410D099824050003000B204309900B984E
:100DE0000003000B20430B9050181C4940180022B0
:100DF00001901446104605E0002001460DB0F0BDFC
:100E0000032801DA034600E003239C46C11A0AAE18
:100E10000AE05F0008ADED5B4F00F75B7D43002704
:100E2000AA187C41491C5B1E6145F2DD410004AB00
:100E30005A522104120C0A43240C401C0828DFDB00
:100E4000019802900099704601910090059B049AC8
:100E500007990698FFF74AFFD0E700000DFCFFFF57
:100E6000F0B55F0085B07F0DCD0F03974E000127D1
:100E70003F051B0309031B0BED07090B3B43760DD5
:100E8000394397189C46029700245B41039F0195C4
:100E90007F1E00949E46039713E0029F7346C01B7B
:100EA000994106D50127FF077D400F4600214042AA
:100EB000B9416346171A8B41EFD3761E0018039F82
:100EC0004941BE42F5DA02460A4307D000221346E2
:100ED00002960195FFF70AFF05B0F0BD2046019983
:100EE000FAE700000EB5054A02920022009213466E
:100EF0000192FFF7FBFE03B000BD000033040000C9
:100F0000CB0FDB07490010B5490802460A4307D05A
:100F10000A0D07240903E401090B121B002A01DC56
:100F2000002010BDC900440F0C43C100E018D205D9
:100F30008018FFF78DFE10BD064C0125064E05E01A
:100F4000E36807CC2B430C3C98471034B442F7D3EA
:100F5000FFF7B2F8642700088427000810B50F21B6
:100F6000C0B2490200F09EF910BD0000F3B58DB08B
:100F700000200A9001200B90002608460C300C46F9
:100F800009906269012109989047051E2ED0252DF0
:100F90002DD0216A8847002818D06269012109985C
:100FA0009047216A88470028F7D1411E6269099855
:100FB000904700E0761CA1690D988847216A884710
:100FC0000028F7D1E1690D988847DAE7A1690D9803
:100FD00088470746A84201D1761CD2E7E1690D98FF
:100FE00088477F1C02D10A98002877D049E1002762
:100FF00062693D463946099890472A280CD16269B2
:10100000012109989047012506E00A214F433F1826
:10101000303FEBD4102005436269012109989047C5
:10102000014630390A2903D29B498F42DEDCECE7C6
:10103000E90600D4994F6C280AD04C2810D06828B3
:1010400024D06A282ED074280CD07A280AD00DE03B
:1010500062690121099890476C2823D004211CE083
:10106000202005436269012109989047A7606560C7
:1010700065284FD026DC582839D01ADC452849D0BD
:1010800012DC252834D04128B0D143E06269012127
:1010900009989047682802D008210D43E6E701200F
:1010A000C002DEE70220DCE7462833D047282CD1F7
:1010B00030E05B2870D061282CD063286CD0642885
:1010C00023D161E06F284FD009DC662822D0672841
:1010D00020D0692826D06E2817D12EE0CDE07028C8
:1010E0004DD073286FD075284ED078280DD154E09C
:1010F000A1690D9888470546252800D16CE7E1696C
:101100000D9888476D1C00D16DE7BAE00A224CE0CB
:101110000A2252E0012023466A46C0430D99FFF798
:1011200024FAA3E02846402108436060A80723462C
:1011300001D5002239E000223FE0E80700D020E797
:101140002068011D21600068290501D5067018E797
:10115000290701D5068014E7A90703D5F117066012
:1011600041600EE706600CE72846402108436060B6
:10117000A807234601D5082217E008221DE04849A8
:1011800028460840606016E0284640210843606019
:10119000A8072346BCD5B9E715E0284640210843F7
:1011A0006060A80707D5234610220120C0430D998F
:1011B000C046C0465AE0234610220120C0430D9984
:1011C000FFF72AF852E000210C910B4600916328AA
:1011D00002D05B2807D043E0E80601D40120A060DC
:1011E000012000903CE062690121099890475E2847
:1011F00005D101200C900146626909989047216948
:10120000002906D10B4601AA8F00491CD351082999
:10121000FADB002835D0216900290ED1C117C90E8B
:1012200009184A11930001AA9A1849094901411A5B
:101230000120136888400343136062690121099803
:1012400090475D28E5D10C98002808D0002001AB1C
:1012500081005A58401CD2435A500828F8DB01AB91
:1012600001202246C0430D99FFF77BF800280ADAD7
:10127000401C06D10B98002803D00020C0430FB0BB
:10128000F0BD0A98FBE7E90702D10A99491C0A91C7
:10129000361800200B9074E6CCCCCC0CFFFFFF7FFF
:1012A000F1F7FFFF7F2801D9002207E0054B420834
:1012B0009A5CC00700D112091207120F012090405A
:1012C00008407047D826000870470000F0B58FB07E
:1012D00000F08CF9364D6968401A32285FD92888A9
:1012E00000285CD033A13548FEF763FF06004FD0DD
:1012F0002846083048210746FEF750FF28464C3064
:101300000346011F821F0D9014380C910B92011F90
:10131000821F103B0A93C31F0990089108381039A7
:10132000059024380C1F049106930792811E223ADF
:101330000292C31E0091019003943A462049304620
:10134000FEF74CFF21782D20002900D12070217C50
:10135000002900D12074164940310A79002A00D1B1
:101360000871217F002900D12077286901F01EF93A
:10137000124CE21DFF32FA32D1619061686A01F0CD
:1013800015F94522D2001051FF34FF340234E162D6
:10139000012149020948FEF701FF00202880044985
:1013A0000122891C074800F0BFFD0FB0F0BD00000E
:1013B0009802002024474E4747412C009800002007
:1013C000182700081400002010B500F00FF90A4992
:1013D000FF2248600888FF32904205D2074B8A7886
:1013E0001A540888401C088003490122891C0448BB
:1013F00000F09AFD10BD0000980200209800002027
:101400001400002010B5044800210180811C012235
:10141000024800F089FD10BD980200201400002051
:1014200070B50024014620314A78022A03D00421F5
:101430008163012416E0026813680E25AB43136034
:10144000026813685B085B0013600122056C134699
:10145000AB40C56B6B604A7000220A70416B00297B
:1014600000D08847204670BD70B5044600F0BEF835
:101470000546601C02D004480078241800F0B6F835
:10148000401BA042FAD370BD00000020F8B5002335
:101490008DE001249C40A44622407DD04C68022C63
:1014A00001D0122C0CD1DC08A40027183C6A5D077F
:1014B000ED0E0F26AE40B4430E69AE4026433E62A9
:1014C00005685E000324B4400F79A543BF07BF0F32
:1014D000B7402F4307604D68012D05D0022D03D082
:1014E000112D01D0122D0ED18568CF68A543B740CC
:1014F0002F43876047686546AF430D79ED06ED0FD2
:101500009D403D434560C568A5438C68B4402C436D
:10151000C4604C68E40049D5284CA56901263543D0
:10152000A561A4699D0834400094254CAD002F1995
:10153000BC689D072E0F0F25B540AC430925ED066D
:10154000A84201D100250FE01E4DA84201D101257E
:101550000AE01D4DA84201D1022505E01B4DA8421D
:1015600001D1032500E00525B5402543BD60184C99
:1015700025684E689543F60300D5154325606568D8
:101580004E689543B60300D515436560A5684E685F
:101590009543F60202D500E008E01543A560E56832
:1015A0004E689543B60200D51543E5605B1C0A689A
:1015B0001446DC4000D06CE7F8BD0000001002408B
:1015C000000001400004004800080048000C0048EA
:1015D0000004014042690A4200D009048161704759
:1015E000002A01D08161704781627047014880689C
:1015F00070470000000000200248816802788918C6
:10160000816070470000002010B506480168102274
:1016100011430160002000F007F800F027F80020D7
:1016200010BD00000020024070B504460D4D7D2025
:101630002978C000FEF754FD01460B480068FEF70C
:101640004FFD00F043FB002809D1042C07D20022F3
:101650002146401E00F02AF800206C6070BD012079
:1016600070BD0000000000200C00002008B50848F4
:101670008169012211438161816911400091C26930
:1016800001040A43C261C0690840009008BD00001F
:1016900000100240002805DBC106C90E0120884069
:1016A000014908607047000000E100E010B500F05B
:1016B00035FF10BDF8B505460068354CC00352D55E
:1016C000E0690026C00007D4E16920040143E1611C
:1016D000E1690140012600912E480168C90510D436
:1016E0000168821511430160FFF780FF074604E09F
:1016F000FFF77CFFC01B642824D826480068C0057B
:10170000F6D5206A03273F02384020D06968394067
:1017100081421CD0206A226AB843012109040A438D
:101720002262226A8A4322622062C0070FD0FFF73A
:101730005DFF009008E0FFF759FF0099411A164835
:10174000814201D90320F8BD206A8007F3D5206AC1
:101750006968B84308432062002E04D0E169012083
:1017600000078143E1612878C00705D0206BA96894
:1017700080088000084320632878800605D5206B08
:1017800010218843E968084320630020F8BD000069
:10179000001002400070004088130000F8B50F46AA
:1017A000060059D03A4D2868C007C00FB84209D288
:1017B000286840084000384328602868C007C00FE8
:1017C000B84249D13068334C81070CD5400704D565
:1017D000606807210902084360606068F02188435F
:1017E000B168084360603078C00726D0706801286F
:1017F0000ED0216802280ED0890700292CDA6168F2
:101800008908890001436160FFF7F0FE00900DE058
:1018100021688903F1E78901EFE7FFF7E7FE009907
:10182000411A1D48814201D90320F8BD60680C218E
:101830000840716889008842EFD12868C007C00F4E
:10184000B8420BD92868400840003843286028680F
:10185000C007C00FB84201D00120F8BD3078400762
:1018600006D56068072109028843F1680843606073
:1018700000F028F86168094A0906090F515CC84060
:10188000074908600020FFF7CFFE0020F8BD0000E8
:10189000002002400010024088130000C02600080B
:1018A0000C0000200448054900684968044A4905BD
:1018B000490F515CC84070470C00002000100240E6
:1018C000D026000810B514A30FCB88B06C460FC407
:1018D00015A30FCB0FC4184A51680C200B460340C8
:1018E0001648042B16D0082B14D18B021B0F6C4604
:1018F000E45CD26A04AB1207120F9A5CC90305D5E7
:1019000000231946FEF702FC214601E020460C495F
:1019100000F0EBFD08B010BD02030405060708093E
:101920000A0B0C0D0E0F1010010203040506070828
:10193000090A0B0C0D0E0F100010024000127A0065
:1019400000093D00FEB5040070D02078DC4DC007D2
:101950004AD068680007800F012807D06868000730
:10196000800F022809D16868C00306D52868800363
:101970003AD560680028E7D036E06168012914D0C4
:1019800001208004002901D0052914D02A680121F2
:1019900009048A432A602968814329606068002815
:1019A00016D0FFF723FE06460EE028680121090441
:1019B00008432860F2E7296801432960F5E7FFF74B
:1019C00015FE801B64286ED828688003F7D50BE0CD
:1019D000FFF70CFE064604E0FFF708FE801B6428B4
:1019E000F1D828688003F7D42078012680070028E2
:1019F0003CDA68680007800F07D068680007800F2E
:101A0000022809D16868C00306D42868800716D563
:101A1000E06801280AD112E0E0680028286816D0A2
:101A200030432860FFF7E2FD074605E043E1FFF79A
:101A3000DDFDC01B0228C6D828688007F7D52868B6
:101A4000F82188432169C900084328600EE0400856
:101A500040002860FFF7CAFD074604E0FFF7C6FD17
:101A6000C01B0228AFD828688007F7D42078000769
:101A700022D5E0690028686A0ED030436862FFF71B
:101A8000B5FD074604E0FFF7B1FDC01B02289AD858
:101A9000686A8007F7D50FE0400840006862FFF7EA
:101AA000A5FD074605E09DE0FFF7A0FDC01B02284D
:101AB00089D8686A8007F7D420780427400700286F
:101AC00060DA00200190E869C00008D4E969B8062E
:101AD0000143E961E96901400120009101907948E1
:101AE0000168C90511D40168821511430160FFF72F
:101AF0007DFD009005E0FFF779FD0099401A64280C
:101B000070D870480068C005F5D5A06801280AD0D3
:101B1000002801D0052810D0286A4008400028621B
:101B2000286AB84301E0286A30432862A068002888
:101B300012D0FFF75BFD00900AE0286A3843286264
:101B4000F1E7FFF753FD0099411A5F48814249D8F8
:101B5000286A8007F5D50DE0FFF748FD009006E004
:101B6000FFF744FD0099411A574881423AD8286A44
:101B70008007F5D40198002804D0E9690120000706
:101B80008143E9612078C00635D5606901280CD011
:101B9000401D686B23D038436863686B4008400081
:101BA0006863FFF723FD064622E0686B38436863ED
:101BB000686B30436863FFF719FD064604E0FFF7E2
:101BC00015FD801B02285BD8686B8007F7D5686B12
:101BD000F8218843A169C900084368630BE0B84352
:101BE0006863F4E74CE0FFF701FD801B022847D84B
:101BF000686B8007F7D4206A00285ED069680907FF
:101C0000890F022942D0012636060228286805D00D
:101C1000B0432860FFF7EAFC044633E0B043286095
:101C2000FFF7E4FC074604E0FFF7E0FCC01B0228D6
:101C300026D828688001F7D4E86AE16A0009000123
:101C40000843E862616AA06A084369683D22120499
:101C5000914308436860286830432860FFF7C6FC5A
:101C6000044604E0FFF7C2FC001B022808D82868DD
:101C70008001F7D521E0FFF7B9FC001B022801D94C
:101C80000320FEBD28688001F5D416E00128F8D0B5
:101C90006868E96A01221204636A02409A420AD122
:101CA0000907E26A090F914205D10F218904084012
:101CB000A16A884201D00120FEBD0020FEBD0000C7
:101CC000001002400070004088130000094910B560
:101CD000401E884201D9012010BD074C60610321DC
:101CE000081F00F01BFC0020A061072020610020DD
:101CF00010BD0000FFFFFF0000E000E070470000A3
:101D0000F8B502680446D069116893684C4D0646E0
:101D10002E402025002E68D0DE07F60FFF27213742
:101D20000F40374375D0C70706D0CF0504D501272C
:101D30001762E26F3A43E267820708D5DA0706D0F6
:101D4000276802223A62E26F04273A43E2674207B9
:101D500008D5DA0706D0236804221A62E26F02234C
:101D60001A43E267020709D50A462A40324305D0E2
:101D7000236808221A62E36F1343E367020508D55C
:101D80004A0106D501222368D2021A62E26F2A4371
:101D9000E267E26F002A30D0800606D5880604D5B7
:101DA000216E002901D020468847E06F21688968AC
:101DB000490602D42821084224D0204600F028FAFF
:101DC00020688168490619D5816840229143816065
:101DD000E06E002812D01B494163E06EFFF720FB44
:101DE00000280AD0E06E416B06E0830611D58B0611
:101DF0000FD5216E12E020468847F8BD2046FFF738
:101E00007DFFF8BD2046FFF779FF0020E067F8BDB1
:101E1000FFE7030605D50B0603D5616E0029EAD15D
:101E2000F5E74006F3D54806F1D511682046402372
:101E30009943116065670021616600F0CFF8E6E71D
:101E40000F080000FD21000810B5040003D0606FEA
:101E5000002802D007E0012010BD002170200155AC
:101E6000204600F027F824206067206801684908B0
:101E700049000160204600F033FA0128ECD0606A86
:101E8000002802D0204600F023F920684168012292
:101E9000D2029143416020688168082291438160A9
:101EA00020680168012211430160204600F076F9A4
:101EB00010BD000010B586B0044614216846FEF738
:101EC0006DF917492068884227D116488269012197
:101ED00089030A43826182690A4005924269C90006
:101EE0000A43426140690840059003204002009087
:101EF0000220019000200290032003900120049012
:101F000009206946C006FFF7C1FA002211461B20CE
:101F1000FFF7CCFB1B20FFF7BDFB06B010BD000098
:101F20000038014000100240F0B5836F202B49D1EA
:101F300000290AD0002A08D08568DC01A54206D114
:101F40000369002B03D1CB0701D00120F0BD03466C
:101F500060331E7C012E35D001271F744165014678
:101F600040310A834A830022FF260266A54204D13B
:101F70000569002D22D1144D1EE0002D18D08A8352
:101F8000C2672221816701688D683D438D60816849
:101F9000A14202D10169002912D00C4901661A74CC
:101FA00000680168FF222132114301600020F0BD6A
:101FB0000569002D02D07F258D83E1E78E83DFE761
:101FC0000349EBE70220F0BDFF0100008922000871
:101FD0003122000810B5FFF7F7F910BD7047FEE792
:101FE00010B586B014216846FEF7D8F80E4842694D
:101FF000012149040A434261406909240840E4067A
:102000000590002210212046FFF7EAFA10200090E8
:102010000021012002910391019069462046FFF7BB
:1020200035FA06B010BD00000010024010B50C4893
:102030000A4901604B21C901416000218160C160F2
:1020400001618161C1610C22016242614162FFF75D
:10205000FBFE002801D0FFF737F910BD0038014022
:102060001400002070477047704710B5FFF7C4FA9E
:1020700010BD70B594B030216846FEF78FF800248B
:102080000E94139410200994022504900D940F943B
:102090000520129401260095C0040C941094039618
:1020A0000A90119408950B946846FFF74BFC0720A3
:1020B0000C900E9401210D950F940CA8FFF76EFB68
:1020C00010A810961294FFF7F5FA14B070BD70477F
:1020D00010B5818CC90707D001684A6801235B04E9
:1020E0009A43836A1A434A60818C890707D501683D
:1020F0004A6801231B049A43C36A1A434A60818CCD
:10210000490707D501684A6801239B049A43036B7A
:102110001A434A60818C090707D501684A68012380
:10212000DB039A43436B1A434A60818CC90607D587
:102130000268916801231B039943836B19439160E3
:10214000818C890607D501688A6801235B039A435D
:10215000C36B1A438A60818C490612D503685A689A
:1021600001210905046C8A4322435A60026C8A42A9
:1021700007D10268516803235B059943436C1943F7
:102180005160818C090607D501684A680123DB0488
:10219000806C9A4302434A6010BD0000F8B50026E7
:1021A0000446C667FFF722FA054620680068124F0A
:1021B000000709D501212B4600224905204600973A
:1021C00000F026F900280DD12068006840070BD5E3
:1021D00001212B46002289052046009700F018F9BE
:1021E000002801D00320F8BD20206067A06760347C
:1021F00026740020F8BD0000FFFFFF0110B5406A03
:102200000022014640314A834A82FFF777FD10BD24
:1022100001680A68FF2321339A430A6001688A68CB
:10222000520852008A6020218167002101667047B0
:1022300010B5014640318B8B846F0268222C04D08C
:10224000906908210843906110BD928C446D1A403A
:102250002280426D921C42654A8B521E4A83498BF2
:102260000029F1D101680A68FF2321339A430A60EB
:1022700001688A68520852008A6020218167002123
:102280000166FFF7A7FE10BD10B5014640318B8BEC
:10229000846F0268222C04D0906908210843906161
:1022A00010BD928C1A40436D1A70426D521C4265EB
:1022B0004A8B521E4A83498B0029F1D101680A6872
:1022C000FF2321339A430A6001688A68520852004A
:1022D0008A602021816700210166FFF77BFE10BD27
:1022E00070B5044680682169E26908436169002588
:1022F0001143226808431168404B194001431160A3
:1023000021684868032212039043E2681043486042
:10231000A169206A2268084391680B231B02994334
:10232000014391603648006B8007800F06D001287A
:1023300015D0022815D003280FD010200122E16902
:10234000D203304E91422ED100280CD002280DD05D
:1023500004281DD008284AD120E00220EEE70420FE
:10236000ECE70820EAE7FFF79DFA13E06168264AE8
:1023700048088018FDF7B4FE80B201461039B1421A
:1023800035D82049491C01400007400F084321E08F
:10239000FFF798FA616840004A08EAE7616801229D
:1023A00048081204E5E7002806D0022807D00428D0
:1023B00013D008281BD116E0FFF774FA0FE061680C
:1023C000124A480811E0FDF78BFE80B20146103931
:1023D000B1420CD82168C8600AE0FFF773FA61685F
:1023E0004A081018EFE7616848088018EBE70125F4
:1023F000002020666066284670BD0000F369FFFF7C
:1024000000100240EFFF00000024F40000127A00E8
:10241000FFB581B005460F46044660350A9E38E098
:10242000701C36D0FFF7E2F80499401AB04221D868
:10243000002E1FD02068016849072AD5C069C04313
:10244000000526D401202168C002086220680168C6
:10245000FF22A13291430160206881684908490048
:10246000816020206067A067E06700202874032057
:1024700005B0F0BD20680168FF22A13291430160E0
:102480002068816849084900816020206067A06752
:10249000EBE72068C1693846884305D000210398DE
:1024A0008142BDD00020E3E70121F8E710B50248E2
:1024B000FFF726FC10BD0000140000202021020CB4
:1024C00001D010211046020A01D010460839020935
:1024D00001D01046091F820801D01046891E42080B
:1024E00001D0881E7047081A7047F8B5040C8BB2EB
:1024F000264682B25E430D0C1046370C5843360414
:1025000080190021794116466E43370C3604801934
:10251000794126466E438919F8BD00008307FF22E2
:10252000DB0E9A408907090E9940002808DB8308D2
:1025300009489B001B1818689043084318607047AF
:102540000007000F0838830804489B001B18D8694F
:1025500090430843D861704700E400E000ED00E0DC
:10256000002210B5134610461146FEF719FA10BDA9
:1025700002E008C8121F08C1002AFAD1704770474C
:10258000002001E001C1121F002AFBD170470000AA
:1025900001490860704700001000002030380A2808
:1025A00001D20120704700207047000070B5064638
:1025B000FEF792FA00220F4B00F022F805460C4677
:1025C0000D493046FEF7FCF8FEF76DFAFEF760FAAB
:1025D00006460022094B28462146FEF7E1F905464A
:1025E0000C463046FEF778FA2A462346FEF726F9CF
:1025F00070BD0000000059400000C84200004E407D
:1026000070B514461D460E46002801D0012100E099
:10261000002131434A001E4952088A1AD20F15D1AF
:10262000002C01D0012200E000222A43520052086F
:10263000891AC90F0AD1012271005205D14201D174
:1026400000281FD0690001D1002C1BD02246314642
:10265000FEF706FC0246080DC043400510D0F00FFF
:10266000CB0FC007DB0798420AD06D00CB0F6D0877
:10267000DB071D430B4620462946FEF789F9024633
:10268000104670BD0120FFF783FFFFF769FF70BDA3
:102690000000F07FFEF7B8FFFFF7EBFCFFF7A0FCB0
:1026A000FFF7C4FCFEF7AEFE0924E406FEF70EFEBB
:1026B00010212046FEF78EFF6420FEF7D5FEF5E7D9
:1026C00000000000000000000102030406070809E2
:1026D0000000000001020304DDDDDDDDDCBBBBDD4D
:1026E000DDDDDDDDDDDDDDDD9888888888888888B2
:1026F00077777777778888888555555666666666D2
:1027000066666666666888888333333222222222B0
:10271000222222222228888D24474E4747412C25F9
:1027200032686864253268686425326868642E25DA
:102730003368642C25662C25632C25662C25632C98
:10274000256868642C256868642C25662C25662C11
:1027500025632C2568642C25732C2A2532730D0AD9
:102760000000000084270008000000201400000082
:10277000702500089827000814000020D4060000E7
:102780008025000801000000040000000000000097
:0827900000127A0000000000B5
:04000005080000B13E
:00000001FF
